:100000003DC0000057C0000055C0000053C00000B4
:1000100051C000004FC000004DC000004BC00000A8
:1000200049C0000047C0000045C0000043C00000B8
:1000300041C000003FC000003DC0000045C00000BE
:1000400039C0000037C0000035C0000033C00000D8
:1000500031C000002FC000002DC000002BC00000E8
:1000600029C0000027C0000025C0000023C00000F8
:1000700021C000001FC000001DC0000011241FBED1
:10008000CFEFCDBFDFE3DEBF809140008093400023
:10009000811105C098ED21E094BF209341008CBBF5
:1000A00028E3A0E0B8E301C01D92AA30B207E1F74F
:1000B0003AD07AC0A5CF80E280932104E5E2F4E053
:1000C0008089877F808B08958F9381E080938D0A4C
:1000D0008FB78F93EF93FF93E0E0F8E39F936894DB
:1000E0008FEF0DC0E89484819581805D9C4F84835F
:1000F0009583885E934080F0848395838FEF908111
:10010000981B919390819F4F919390819F4F9193D2
:1001100090819F4F919336F39F91FF91EF918F9133
:100120008FBF8F91189588ED90E084BF9093610008
:10013000E0E0F6E083E582838DE0858380E28383DF
:1001400081E0808397E0909302028093030A9EEF00
:100150009093260A9093270A9BE09093000AE0E888
:10016000FAE02DEF31E026A737A7118290E89283BD
:10017000848781E1808378949EDF80E48295982F44
:100180009474E4E029F4982F9272E2E009F4E0E03C
:10019000F0E0E85DF54F93ED90839091010A892B93
:0C01A0008093010A88DFFFCFF894FFCFA6
:00000001FF
